{
  "_format": "hh-sol-artifact-1",
  "contractName": "Project",
  "sourceName": "contracts/Project.sol",
  "abi": [
    {
      "inputs": [
        {
          "internalType": "string",
          "name": "name",
          "type": "string"
        },
        {
          "internalType": "string",
          "name": "id",
          "type": "string"
        },
        {
          "internalType": "address",
          "name": "_projectManager",
          "type": "address"
        }
      ],
      "stateMutability": "nonpayable",
      "type": "constructor"
    },
    {
      "anonymous": false,
      "inputs": [
        {
          "indexed": true,
          "internalType": "address",
          "name": "id",
          "type": "address"
        },
        {
          "indexed": false,
          "internalType": "string",
          "name": "name",
          "type": "string"
        }
      ],
      "name": "DISTRIBUTION_RIGHT_AWARDED",
      "type": "event"
    },
    {
      "anonymous": false,
      "inputs": [
        {
          "indexed": true,
          "internalType": "address",
          "name": "previousOwner",
          "type": "address"
        },
        {
          "indexed": true,
          "internalType": "address",
          "name": "newOwner",
          "type": "address"
        }
      ],
      "name": "OwnershipTransferred",
      "type": "event"
    },
    {
      "anonymous": false,
      "inputs": [
        {
          "indexed": true,
          "internalType": "uint256",
          "name": "amount",
          "type": "uint256"
        },
        {
          "indexed": true,
          "internalType": "address",
          "name": "distributor",
          "type": "address"
        },
        {
          "indexed": true,
          "internalType": "string",
          "name": "projectId",
          "type": "string"
        }
      ],
      "name": "REVENUE_GENERATED",
      "type": "event"
    },
    {
      "anonymous": false,
      "inputs": [
        {
          "indexed": true,
          "internalType": "bytes32",
          "name": "role",
          "type": "bytes32"
        },
        {
          "indexed": true,
          "internalType": "bytes32",
          "name": "previousAdminRole",
          "type": "bytes32"
        },
        {
          "indexed": true,
          "internalType": "bytes32",
          "name": "newAdminRole",
          "type": "bytes32"
        }
      ],
      "name": "RoleAdminChanged",
      "type": "event"
    },
    {
      "anonymous": false,
      "inputs": [
        {
          "indexed": true,
          "internalType": "bytes32",
          "name": "role",
          "type": "bytes32"
        },
        {
          "indexed": true,
          "internalType": "address",
          "name": "account",
          "type": "address"
        },
        {
          "indexed": true,
          "internalType": "address",
          "name": "sender",
          "type": "address"
        }
      ],
      "name": "RoleGranted",
      "type": "event"
    },
    {
      "anonymous": false,
      "inputs": [
        {
          "indexed": true,
          "internalType": "bytes32",
          "name": "role",
          "type": "bytes32"
        },
        {
          "indexed": true,
          "internalType": "address",
          "name": "account",
          "type": "address"
        },
        {
          "indexed": true,
          "internalType": "address",
          "name": "sender",
          "type": "address"
        }
      ],
      "name": "RoleRevoked",
      "type": "event"
    },
    {
      "anonymous": false,
      "inputs": [
        {
          "indexed": true,
          "internalType": "uint256",
          "name": "amount",
          "type": "uint256"
        },
        {
          "indexed": true,
          "internalType": "address",
          "name": "userId",
          "type": "address"
        }
      ],
      "name": "SHARE_PAID",
      "type": "event"
    },
    {
      "anonymous": false,
      "inputs": [
        {
          "indexed": true,
          "internalType": "address",
          "name": "id",
          "type": "address"
        },
        {
          "indexed": true,
          "internalType": "uint256",
          "name": "quota",
          "type": "uint256"
        }
      ],
      "name": "USER_ADDED",
      "type": "event"
    },
    {
      "inputs": [],
      "name": "DEFAULT_ADMIN_ROLE",
      "outputs": [
        {
          "internalType": "bytes32",
          "name": "",
          "type": "bytes32"
        }
      ],
      "stateMutability": "view",
      "type": "function"
    },
    {
      "inputs": [],
      "name": "DISTRIBUTOR_ROLE",
      "outputs": [
        {
          "internalType": "bytes32",
          "name": "",
          "type": "bytes32"
        }
      ],
      "stateMutability": "view",
      "type": "function"
    },
    {
      "inputs": [
        {
          "internalType": "address",
          "name": "accountId",
          "type": "address"
        },
        {
          "internalType": "string",
          "name": "name",
          "type": "string"
        }
      ],
      "name": "addDistributor",
      "outputs": [],
      "stateMutability": "nonpayable",
      "type": "function"
    },
    {
      "inputs": [
        {
          "internalType": "uint256",
          "name": "amount",
          "type": "uint256"
        }
      ],
      "name": "addRevenue",
      "outputs": [],
      "stateMutability": "nonpayable",
      "type": "function"
    },
    {
      "inputs": [
        {
          "internalType": "string",
          "name": "_name",
          "type": "string"
        },
        {
          "internalType": "string",
          "name": "_org",
          "type": "string"
        },
        {
          "internalType": "uint256",
          "name": "_quota",
          "type": "uint256"
        },
        {
          "internalType": "address",
          "name": "_id",
          "type": "address"
        }
      ],
      "name": "addUser",
      "outputs": [],
      "stateMutability": "nonpayable",
      "type": "function"
    },
    {
      "inputs": [
        {
          "internalType": "bytes32",
          "name": "role",
          "type": "bytes32"
        }
      ],
      "name": "getRoleAdmin",
      "outputs": [
        {
          "internalType": "bytes32",
          "name": "",
          "type": "bytes32"
        }
      ],
      "stateMutability": "view",
      "type": "function"
    },
    {
      "inputs": [
        {
          "internalType": "bytes32",
          "name": "role",
          "type": "bytes32"
        },
        {
          "internalType": "address",
          "name": "account",
          "type": "address"
        }
      ],
      "name": "grantRole",
      "outputs": [],
      "stateMutability": "nonpayable",
      "type": "function"
    },
    {
      "inputs": [
        {
          "internalType": "bytes32",
          "name": "role",
          "type": "bytes32"
        },
        {
          "internalType": "address",
          "name": "account",
          "type": "address"
        }
      ],
      "name": "hasRole",
      "outputs": [
        {
          "internalType": "bool",
          "name": "",
          "type": "bool"
        }
      ],
      "stateMutability": "view",
      "type": "function"
    },
    {
      "inputs": [],
      "name": "owner",
      "outputs": [
        {
          "internalType": "address",
          "name": "",
          "type": "address"
        }
      ],
      "stateMutability": "view",
      "type": "function"
    },
    {
      "inputs": [
        {
          "internalType": "uint256",
          "name": "amount",
          "type": "uint256"
        }
      ],
      "name": "payUsers",
      "outputs": [],
      "stateMutability": "nonpayable",
      "type": "function"
    },
    {
      "inputs": [],
      "name": "renounceOwnership",
      "outputs": [],
      "stateMutability": "nonpayable",
      "type": "function"
    },
    {
      "inputs": [
        {
          "internalType": "bytes32",
          "name": "role",
          "type": "bytes32"
        },
        {
          "internalType": "address",
          "name": "account",
          "type": "address"
        }
      ],
      "name": "renounceRole",
      "outputs": [],
      "stateMutability": "nonpayable",
      "type": "function"
    },
    {
      "inputs": [
        {
          "internalType": "bytes32",
          "name": "role",
          "type": "bytes32"
        },
        {
          "internalType": "address",
          "name": "account",
          "type": "address"
        }
      ],
      "name": "revokeRole",
      "outputs": [],
      "stateMutability": "nonpayable",
      "type": "function"
    },
    {
      "inputs": [
        {
          "internalType": "bytes4",
          "name": "interfaceId",
          "type": "bytes4"
        }
      ],
      "name": "supportsInterface",
      "outputs": [
        {
          "internalType": "bool",
          "name": "",
          "type": "bool"
        }
      ],
      "stateMutability": "view",
      "type": "function"
    },
    {
      "inputs": [
        {
          "internalType": "address",
          "name": "newOwner",
          "type": "address"
        }
      ],
      "name": "transferOwnership",
      "outputs": [],
      "stateMutability": "nonpayable",
      "type": "function"
    }
  ],
  "bytecode": "0x60806040523480156200001157600080fd5b506040516200256638038062002566833981810160405281019062000037919062000421565b620000576200004b620000c060201b60201c565b620000c860201b60201c565b81600390805190602001906200006f929190620002e8565b50826004908051906020019062000088929190620002e8565b506200009e6000801b826200018c60201b60201c565b620000af81620000c860201b60201c565b600060028190555050505062000667565b600033905090565b60008060009054906101000a900473ffffffffffffffffffffffffffffffffffffffff169050816000806101000a81548173ffffffffffffffffffffffffffffffffffffffff021916908373ffffffffffffffffffffffffffffffffffffffff1602179055508173ffffffffffffffffffffffffffffffffffffffff168173ffffffffffffffffffffffffffffffffffffffff167f8be0079c531659141344cd1fd0a4f28419497f9722a3daafe3b4186f6b6457e060405160405180910390a35050565b6200019e82826200027d60201b60201c565b6200027957600180600084815260200190815260200160002060000160008373ffffffffffffffffffffffffffffffffffffffff1673ffffffffffffffffffffffffffffffffffffffff16815260200190815260200160002060006101000a81548160ff0219169083151502179055506200021e620000c060201b60201c565b73ffffffffffffffffffffffffffffffffffffffff168173ffffffffffffffffffffffffffffffffffffffff16837f2f8788117e7eff1d82e926ec794901d17c78024a50270940304540a733656f0d60405160405180910390a45b5050565b60006001600084815260200190815260200160002060000160008373ffffffffffffffffffffffffffffffffffffffff1673ffffffffffffffffffffffffffffffffffffffff16815260200190815260200160002060009054906101000a900460ff16905092915050565b828054620002f69062000572565b90600052602060002090601f0160209004810192826200031a576000855562000366565b82601f106200033557805160ff191683800117855562000366565b8280016001018555821562000366579182015b828111156200036557825182559160200191906001019062000348565b5b50905062000375919062000379565b5090565b5b80821115620003945760008160009055506001016200037a565b5090565b6000620003af620003a984620004d2565b620004a9565b905082815260208101848484011115620003c857600080fd5b620003d58482856200053c565b509392505050565b600081519050620003ee816200064d565b92915050565b600082601f8301126200040657600080fd5b81516200041884826020860162000398565b91505092915050565b6000806000606084860312156200043757600080fd5b600084015167ffffffffffffffff8111156200045257600080fd5b6200046086828701620003f4565b935050602084015167ffffffffffffffff8111156200047e57600080fd5b6200048c86828701620003f4565b92505060406200049f86828701620003dd565b9150509250925092565b6000620004b5620004c8565b9050620004c38282620005a8565b919050565b6000604051905090565b600067ffffffffffffffff821115620004f057620004ef6200060d565b5b620004fb826200063c565b9050602081019050919050565b600062000515826200051c565b9050919050565b600073ffffffffffffffffffffffffffffffffffffffff82169050919050565b60005b838110156200055c5780820151818401526020810190506200053f565b838111156200056c576000848401525b50505050565b600060028204905060018216806200058b57607f821691505b60208210811415620005a257620005a1620005de565b5b50919050565b620005b3826200063c565b810181811067ffffffffffffffff82111715620005d557620005d46200060d565b5b80604052505050565b7f4e487b7100000000000000000000000000000000000000000000000000000000600052602260045260246000fd5b7f4e487b7100000000000000000000000000000000000000000000000000000000600052604160045260246000fd5b6000601f19601f8301169050919050565b620006588162000508565b81146200066457600080fd5b50565b611eef80620006776000396000f3fe608060405234801561001057600080fd5b50600436106100f55760003560e01c8063715018a611610097578063a217fddf11610066578063a217fddf1461025a578063d547741f14610278578063f0bd87cc14610294578063f2fde38b146102b2576100f5565b8063715018a6146101e65780638da5cb5b146101f057806391d148541461020e578063a15ddba51461023e576100f5565b8063248a9ca3116100d3578063248a9ca3146101625780632f2ff15d1461019257806336568abe146101ae57806363ec512d146101ca576100f5565b806301ffc9a7146100fa5780631214d2fd1461012a5780631d5f1c2314610146575b600080fd5b610114600480360381019061010f9190611549565b6102ce565b6040516101219190611882565b60405180910390f35b610144600480360381019061013f9190611490565b610348565b005b610160600480360381019061015b9190611605565b610511565b005b61017c600480360381019061017791906114e4565b610680565b604051610189919061189d565b60405180910390f35b6101ac60048036038101906101a7919061150d565b6106a0565b005b6101c860048036038101906101c3919061150d565b6106c9565b005b6101e460048036038101906101df9190611605565b61074c565b005b6101ee6107ef565b005b6101f8610877565b6040516102059190611867565b60405180910390f35b6102286004803603810190610223919061150d565b6108a0565b6040516102359190611882565b60405180910390f35b61025860048036038101906102539190611572565b61090b565b005b610262610ad5565b60405161026f919061189d565b60405180910390f35b610292600480360381019061028d919061150d565b610adc565b005b61029c610b05565b6040516102a9919061189d565b60405180910390f35b6102cc60048036038101906102c79190611467565b610b29565b005b60007f7965db0b000000000000000000000000000000000000000000000000000000007bffffffffffffffffffffffffffffffffffffffffffffffffffffffff1916827bffffffffffffffffffffffffffffffffffffffffffffffffffffffff19161480610341575061034082610c21565b5b9050919050565b610350610c8b565b73ffffffffffffffffffffffffffffffffffffffff1661036e610877565b73ffffffffffffffffffffffffffffffffffffffff16146103c4576040517f08c379a00000000000000000000000000000000000000000000000000000000081526004016103bb9061191a565b60405180910390fd5b60405180604001604052808281526020018373ffffffffffffffffffffffffffffffffffffffff16815250600760008473ffffffffffffffffffffffffffffffffffffffff1673ffffffffffffffffffffffffffffffffffffffff168152602001908152602001600020600082015181600001908051906020019061044a929190611308565b5060208201518160010160006101000a81548173ffffffffffffffffffffffffffffffffffffffff021916908373ffffffffffffffffffffffffffffffffffffffff1602179055509050506104bf7ffbd454f36a7e1a388bd6fc3ab10d434aa4578f811acbbcf33afb1c697486313c83610c93565b8173ffffffffffffffffffffffffffffffffffffffff167f755c39a8421447dff0dc5039f1cbd7b1cca303acb67fac79a8260f927d787fdc8260405161050591906118b8565b60405180910390a25050565b610519610c8b565b73ffffffffffffffffffffffffffffffffffffffff16610537610877565b73ffffffffffffffffffffffffffffffffffffffff161461058d576040517f08c379a00000000000000000000000000000000000000000000000000000000081526004016105849061191a565b60405180910390fd5b600061059d600254600554610d73565b90506000811180156105ae57508082105b6105b757600080fd5b600061060c83600660006105c9610877565b73ffffffffffffffffffffffffffffffffffffffff1673ffffffffffffffffffffffffffffffffffffffff16815260200190815260200160002060020154610d89565b9050600061061b826064610d9f565b9050610625610877565b73ffffffffffffffffffffffffffffffffffffffff16817f9e5548b2f8705a1e61763743357e3dbd5285f26b64b9a98da76fbfd669e641ef60405160405180910390a361067460055485610db5565b60058190555050505050565b600060016000838152602001908152602001600020600101549050919050565b6106a982610680565b6106ba816106b5610c8b565b610dcb565b6106c48383610c93565b505050565b6106d1610c8b565b73ffffffffffffffffffffffffffffffffffffffff168173ffffffffffffffffffffffffffffffffffffffff161461073e576040517f08c379a00000000000000000000000000000000000000000000000000000000081526004016107359061193a565b60405180910390fd5b6107488282610e68565b5050565b7ffbd454f36a7e1a388bd6fc3ab10d434aa4578f811acbbcf33afb1c697486313c61077e81610779610c8b565b610dcb565b61078a60025483610db5565b600281905550600360405161079f9190611816565b60405180910390203373ffffffffffffffffffffffffffffffffffffffff16837f455c09316fd4d6a80deba697dbe17579251fddf2f2ea0fce05231961745db6f860405160405180910390a45050565b6107f7610c8b565b73ffffffffffffffffffffffffffffffffffffffff16610815610877565b73ffffffffffffffffffffffffffffffffffffffff161461086b576040517f08c379a00000000000000000000000000000000000000000000000000000000081526004016108629061191a565b60405180910390fd5b6108756000610f4a565b565b60008060009054906101000a900473ffffffffffffffffffffffffffffffffffffffff16905090565b60006001600084815260200190815260200160002060000160008373ffffffffffffffffffffffffffffffffffffffff1673ffffffffffffffffffffffffffffffffffffffff16815260200190815260200160002060009054906101000a900460ff16905092915050565b610913610c8b565b73ffffffffffffffffffffffffffffffffffffffff16610931610877565b73ffffffffffffffffffffffffffffffffffffffff1614610987576040517f08c379a000000000000000000000000000000000000000000000000000000000815260040161097e9061191a565b60405180910390fd5b60405180608001604052808581526020018481526020018381526020018273ffffffffffffffffffffffffffffffffffffffff16815250600660008373ffffffffffffffffffffffffffffffffffffffff1673ffffffffffffffffffffffffffffffffffffffff1681526020019081526020016000206000820151816000019080519060200190610a19929190611308565b506020820151816001019080519060200190610a36929190611308565b506040820151816002015560608201518160030160006101000a81548173ffffffffffffffffffffffffffffffffffffffff021916908373ffffffffffffffffffffffffffffffffffffffff160217905550905050818173ffffffffffffffffffffffffffffffffffffffff167f68c79644a5eebaba20ec21556646bb31aa36461179978f6fe261f70e57d53a1460405160405180910390a350505050565b6000801b81565b610ae582610680565b610af681610af1610c8b565b610dcb565b610b008383610e68565b505050565b7ffbd454f36a7e1a388bd6fc3ab10d434aa4578f811acbbcf33afb1c697486313c81565b610b31610c8b565b73ffffffffffffffffffffffffffffffffffffffff16610b4f610877565b73ffffffffffffffffffffffffffffffffffffffff1614610ba5576040517f08c379a0000000000000000000000000000000000000000000000000000000008152600401610b9c9061191a565b60405180910390fd5b600073ffffffffffffffffffffffffffffffffffffffff168173ffffffffffffffffffffffffffffffffffffffff161415610c15576040517f08c379a0000000000000000000000000000000000000000000000000000000008152600401610c0c906118fa565b60405180910390fd5b610c1e81610f4a565b50565b60007f01ffc9a7000000000000000000000000000000000000000000000000000000007bffffffffffffffffffffffffffffffffffffffffffffffffffffffff1916827bffffffffffffffffffffffffffffffffffffffffffffffffffffffff1916149050919050565b600033905090565b610c9d82826108a0565b610d6f57600180600084815260200190815260200160002060000160008373ffffffffffffffffffffffffffffffffffffffff1673ffffffffffffffffffffffffffffffffffffffff16815260200190815260200160002060006101000a81548160ff021916908315150217905550610d14610c8b565b73ffffffffffffffffffffffffffffffffffffffff168173ffffffffffffffffffffffffffffffffffffffff16837f2f8788117e7eff1d82e926ec794901d17c78024a50270940304540a733656f0d60405160405180910390a45b5050565b60008183610d819190611acd565b905092915050565b60008183610d979190611a73565b905092915050565b60008183610dad9190611a42565b905092915050565b60008183610dc391906119ec565b905092915050565b610dd582826108a0565b610e6457610dfa8173ffffffffffffffffffffffffffffffffffffffff16601461100e565b610e088360001c602061100e565b604051602001610e1992919061182d565b6040516020818303038152906040526040517f08c379a0000000000000000000000000000000000000000000000000000000008152600401610e5b91906118b8565b60405180910390fd5b5050565b610e7282826108a0565b15610f465760006001600084815260200190815260200160002060000160008373ffffffffffffffffffffffffffffffffffffffff1673ffffffffffffffffffffffffffffffffffffffff16815260200190815260200160002060006101000a81548160ff021916908315150217905550610eeb610c8b565b73ffffffffffffffffffffffffffffffffffffffff168173ffffffffffffffffffffffffffffffffffffffff16837ff6391f5c32d9c69d2a47ea670b442974b53935d1edc7fd64eb21e047a839171b60405160405180910390a45b5050565b60008060009054906101000a900473ffffffffffffffffffffffffffffffffffffffff169050816000806101000a81548173ffffffffffffffffffffffffffffffffffffffff021916908373ffffffffffffffffffffffffffffffffffffffff1602179055508173ffffffffffffffffffffffffffffffffffffffff168173ffffffffffffffffffffffffffffffffffffffff167f8be0079c531659141344cd1fd0a4f28419497f9722a3daafe3b4186f6b6457e060405160405180910390a35050565b6060600060028360026110219190611a73565b61102b91906119ec565b67ffffffffffffffff81111561106a577f4e487b7100000000000000000000000000000000000000000000000000000000600052604160045260246000fd5b6040519080825280601f01601f19166020018201604052801561109c5781602001600182028036833780820191505090505b5090507f3000000000000000000000000000000000000000000000000000000000000000816000815181106110fa577f4e487b7100000000000000000000000000000000000000000000000000000000600052603260045260246000fd5b60200101907effffffffffffffffffffffffffffffffffffffffffffffffffffffffffffff1916908160001a9053507f780000000000000000000000000000000000000000000000000000000000000081600181518110611184577f4e487b7100000000000000000000000000000000000000000000000000000000600052603260045260246000fd5b60200101907effffffffffffffffffffffffffffffffffffffffffffffffffffffffffffff1916908160001a905350600060018460026111c49190611a73565b6111ce91906119ec565b90505b60018111156112ba577f3031323334353637383961626364656600000000000000000000000000000000600f861660108110611236577f4e487b7100000000000000000000000000000000000000000000000000000000600052603260045260246000fd5b1a60f81b828281518110611273577f4e487b7100000000000000000000000000000000000000000000000000000000600052603260045260246000fd5b60200101907effffffffffffffffffffffffffffffffffffffffffffffffffffffffffffff1916908160001a905350600485901c9450806112b390611bc1565b90506111d1565b50600084146112fe576040517f08c379a00000000000000000000000000000000000000000000000000000000081526004016112f5906118da565b60405180910390fd5b8091505092915050565b82805461131490611beb565b90600052602060002090601f016020900481019282611336576000855561137d565b82601f1061134f57805160ff191683800117855561137d565b8280016001018555821561137d579182015b8281111561137c578251825591602001919060010190611361565b5b50905061138a919061138e565b5090565b5b808211156113a757600081600090555060010161138f565b5090565b60006113be6113b98461197f565b61195a565b9050828152602081018484840111156113d657600080fd5b6113e1848285611b7f565b509392505050565b6000813590506113f881611e5d565b92915050565b60008135905061140d81611e74565b92915050565b60008135905061142281611e8b565b92915050565b600082601f83011261143957600080fd5b81356114498482602086016113ab565b91505092915050565b60008135905061146181611ea2565b92915050565b60006020828403121561147957600080fd5b6000611487848285016113e9565b91505092915050565b600080604083850312156114a357600080fd5b60006114b1858286016113e9565b925050602083013567ffffffffffffffff8111156114ce57600080fd5b6114da85828601611428565b9150509250929050565b6000602082840312156114f657600080fd5b6000611504848285016113fe565b91505092915050565b6000806040838503121561152057600080fd5b600061152e858286016113fe565b925050602061153f858286016113e9565b9150509250929050565b60006020828403121561155b57600080fd5b600061156984828501611413565b91505092915050565b6000806000806080858703121561158857600080fd5b600085013567ffffffffffffffff8111156115a257600080fd5b6115ae87828801611428565b945050602085013567ffffffffffffffff8111156115cb57600080fd5b6115d787828801611428565b93505060406115e887828801611452565b92505060606115f9878288016113e9565b91505092959194509250565b60006020828403121561161757600080fd5b600061162584828501611452565b91505092915050565b61163781611b01565b82525050565b61164681611b13565b82525050565b61165581611b1f565b82525050565b6000611666826119c5565b61167081856119d0565b9350611680818560208601611b8e565b61168981611d0a565b840191505092915050565b600061169f826119c5565b6116a981856119e1565b93506116b9818560208601611b8e565b80840191505092915050565b600081546116d281611beb565b6116dc81866119e1565b945060018216600081146116f757600181146117085761173b565b60ff1983168652818601935061173b565b611711856119b0565b60005b8381101561173357815481890152600182019150602081019050611714565b838801955050505b50505092915050565b60006117516020836119d0565b915061175c82611d1b565b602082019050919050565b60006117746026836119d0565b915061177f82611d44565b604082019050919050565b60006117976020836119d0565b91506117a282611d93565b602082019050919050565b60006117ba6017836119e1565b91506117c582611dbc565b601782019050919050565b60006117dd6011836119e1565b91506117e882611de5565b601182019050919050565b6000611800602f836119d0565b915061180b82611e0e565b604082019050919050565b600061182282846116c5565b915081905092915050565b6000611838826117ad565b91506118448285611694565b915061184f826117d0565b915061185b8284611694565b91508190509392505050565b600060208201905061187c600083018461162e565b92915050565b6000602082019050611897600083018461163d565b92915050565b60006020820190506118b2600083018461164c565b92915050565b600060208201905081810360008301526118d2818461165b565b905092915050565b600060208201905081810360008301526118f381611744565b9050919050565b6000602082019050818103600083015261191381611767565b9050919050565b600060208201905081810360008301526119338161178a565b9050919050565b60006020820190508181036000830152611953816117f3565b9050919050565b6000611964611975565b90506119708282611c1d565b919050565b6000604051905090565b600067ffffffffffffffff82111561199a57611999611cdb565b5b6119a382611d0a565b9050602081019050919050565b60008190508160005260206000209050919050565b600081519050919050565b600082825260208201905092915050565b600081905092915050565b60006119f782611b75565b9150611a0283611b75565b9250827fffffffffffffffffffffffffffffffffffffffffffffffffffffffffffffffff03821115611a3757611a36611c4e565b5b828201905092915050565b6000611a4d82611b75565b9150611a5883611b75565b925082611a6857611a67611c7d565b5b828204905092915050565b6000611a7e82611b75565b9150611a8983611b75565b9250817fffffffffffffffffffffffffffffffffffffffffffffffffffffffffffffffff0483118215151615611ac257611ac1611c4e565b5b828202905092915050565b6000611ad882611b75565b9150611ae383611b75565b925082821015611af657611af5611c4e565b5b828203905092915050565b6000611b0c82611b55565b9050919050565b60008115159050919050565b6000819050919050565b60007fffffffff0000000000000000000000000000000000000000000000000000000082169050919050565b600073ffffffffffffffffffffffffffffffffffffffff82169050919050565b6000819050919050565b82818337600083830152505050565b60005b83811015611bac578082015181840152602081019050611b91565b83811115611bbb576000848401525b50505050565b6000611bcc82611b75565b91506000821415611be057611bdf611c4e565b5b600182039050919050565b60006002820490506001821680611c0357607f821691505b60208210811415611c1757611c16611cac565b5b50919050565b611c2682611d0a565b810181811067ffffffffffffffff82111715611c4557611c44611cdb565b5b80604052505050565b7f4e487b7100000000000000000000000000000000000000000000000000000000600052601160045260246000fd5b7f4e487b7100000000000000000000000000000000000000000000000000000000600052601260045260246000fd5b7f4e487b7100000000000000000000000000000000000000000000000000000000600052602260045260246000fd5b7f4e487b7100000000000000000000000000000000000000000000000000000000600052604160045260246000fd5b6000601f19601f8301169050919050565b7f537472696e67733a20686578206c656e67746820696e73756666696369656e74600082015250565b7f4f776e61626c653a206e6577206f776e657220697320746865207a65726f206160008201527f6464726573730000000000000000000000000000000000000000000000000000602082015250565b7f4f776e61626c653a2063616c6c6572206973206e6f7420746865206f776e6572600082015250565b7f416363657373436f6e74726f6c3a206163636f756e7420000000000000000000600082015250565b7f206973206d697373696e6720726f6c6520000000000000000000000000000000600082015250565b7f416363657373436f6e74726f6c3a2063616e206f6e6c792072656e6f756e636560008201527f20726f6c657320666f722073656c660000000000000000000000000000000000602082015250565b611e6681611b01565b8114611e7157600080fd5b50565b611e7d81611b1f565b8114611e8857600080fd5b50565b611e9481611b29565b8114611e9f57600080fd5b50565b611eab81611b75565b8114611eb657600080fd5b5056fea264697066735822122049cb2c13787135c468f3e67851b94fad5c302e2d38397e93a905b272254044a864736f6c63430008020033",
  "linkReferences": {},
  "deployedLinkReferences": {}
}