{
  "_format": "hh-sol-artifact-1",
  "contractName": "Project",
  "sourceName": "contracts/Project.sol",
  "abi": [
    {
      "inputs": [
        {
          "internalType": "bytes32",
          "name": "name",
          "type": "bytes32"
        },
        {
          "internalType": "bytes32",
          "name": "id",
          "type": "bytes32"
        },
        {
          "internalType": "address",
          "name": "_projectManager",
          "type": "address"
        }
      ],
      "stateMutability": "nonpayable",
      "type": "constructor"
    },
    {
      "anonymous": false,
      "inputs": [
        {
          "indexed": true,
          "internalType": "address",
          "name": "id",
          "type": "address"
        },
        {
          "indexed": true,
          "internalType": "bytes32",
          "name": "name",
          "type": "bytes32"
        }
      ],
      "name": "DISTRIBUTION_RIGHT_AWARDED",
      "type": "event"
    },
    {
      "anonymous": false,
      "inputs": [
        {
          "indexed": true,
          "internalType": "address",
          "name": "previousOwner",
          "type": "address"
        },
        {
          "indexed": true,
          "internalType": "address",
          "name": "newOwner",
          "type": "address"
        }
      ],
      "name": "OwnershipTransferred",
      "type": "event"
    },
    {
      "anonymous": false,
      "inputs": [
        {
          "indexed": true,
          "internalType": "uint256",
          "name": "amount",
          "type": "uint256"
        },
        {
          "indexed": true,
          "internalType": "address",
          "name": "distributor",
          "type": "address"
        },
        {
          "indexed": true,
          "internalType": "bytes32",
          "name": "projectId",
          "type": "bytes32"
        }
      ],
      "name": "REVENUE_GENERATED",
      "type": "event"
    },
    {
      "anonymous": false,
      "inputs": [
        {
          "indexed": true,
          "internalType": "bytes32",
          "name": "role",
          "type": "bytes32"
        },
        {
          "indexed": true,
          "internalType": "bytes32",
          "name": "previousAdminRole",
          "type": "bytes32"
        },
        {
          "indexed": true,
          "internalType": "bytes32",
          "name": "newAdminRole",
          "type": "bytes32"
        }
      ],
      "name": "RoleAdminChanged",
      "type": "event"
    },
    {
      "anonymous": false,
      "inputs": [
        {
          "indexed": true,
          "internalType": "bytes32",
          "name": "role",
          "type": "bytes32"
        },
        {
          "indexed": true,
          "internalType": "address",
          "name": "account",
          "type": "address"
        },
        {
          "indexed": true,
          "internalType": "address",
          "name": "sender",
          "type": "address"
        }
      ],
      "name": "RoleGranted",
      "type": "event"
    },
    {
      "anonymous": false,
      "inputs": [
        {
          "indexed": true,
          "internalType": "bytes32",
          "name": "role",
          "type": "bytes32"
        },
        {
          "indexed": true,
          "internalType": "address",
          "name": "account",
          "type": "address"
        },
        {
          "indexed": true,
          "internalType": "address",
          "name": "sender",
          "type": "address"
        }
      ],
      "name": "RoleRevoked",
      "type": "event"
    },
    {
      "anonymous": false,
      "inputs": [
        {
          "indexed": true,
          "internalType": "uint256",
          "name": "amount",
          "type": "uint256"
        },
        {
          "indexed": true,
          "internalType": "address",
          "name": "userId",
          "type": "address"
        }
      ],
      "name": "SHARE_PAID",
      "type": "event"
    },
    {
      "anonymous": false,
      "inputs": [
        {
          "indexed": true,
          "internalType": "address",
          "name": "id",
          "type": "address"
        },
        {
          "indexed": true,
          "internalType": "bytes32",
          "name": "name",
          "type": "bytes32"
        },
        {
          "indexed": false,
          "internalType": "bytes32",
          "name": "organization",
          "type": "bytes32"
        },
        {
          "indexed": true,
          "internalType": "uint256",
          "name": "quota",
          "type": "uint256"
        }
      ],
      "name": "USER_ADDED",
      "type": "event"
    },
    {
      "inputs": [],
      "name": "DEFAULT_ADMIN_ROLE",
      "outputs": [
        {
          "internalType": "bytes32",
          "name": "",
          "type": "bytes32"
        }
      ],
      "stateMutability": "view",
      "type": "function"
    },
    {
      "inputs": [],
      "name": "DISTRIBUTOR_ROLE",
      "outputs": [
        {
          "internalType": "bytes32",
          "name": "",
          "type": "bytes32"
        }
      ],
      "stateMutability": "view",
      "type": "function"
    },
    {
      "inputs": [
        {
          "internalType": "address",
          "name": "accountId",
          "type": "address"
        },
        {
          "internalType": "bytes32",
          "name": "name",
          "type": "bytes32"
        }
      ],
      "name": "addDistributor",
      "outputs": [],
      "stateMutability": "nonpayable",
      "type": "function"
    },
    {
      "inputs": [
        {
          "internalType": "uint256",
          "name": "amount",
          "type": "uint256"
        }
      ],
      "name": "addRevenue",
      "outputs": [],
      "stateMutability": "nonpayable",
      "type": "function"
    },
    {
      "inputs": [
        {
          "internalType": "bytes32",
          "name": "_name",
          "type": "bytes32"
        },
        {
          "internalType": "bytes32",
          "name": "_org",
          "type": "bytes32"
        },
        {
          "internalType": "uint256",
          "name": "_quota",
          "type": "uint256"
        },
        {
          "internalType": "address",
          "name": "_id",
          "type": "address"
        }
      ],
      "name": "addUser",
      "outputs": [],
      "stateMutability": "nonpayable",
      "type": "function"
    },
    {
      "inputs": [
        {
          "internalType": "bytes32",
          "name": "role",
          "type": "bytes32"
        }
      ],
      "name": "getRoleAdmin",
      "outputs": [
        {
          "internalType": "bytes32",
          "name": "",
          "type": "bytes32"
        }
      ],
      "stateMutability": "view",
      "type": "function"
    },
    {
      "inputs": [
        {
          "internalType": "bytes32",
          "name": "role",
          "type": "bytes32"
        },
        {
          "internalType": "address",
          "name": "account",
          "type": "address"
        }
      ],
      "name": "grantRole",
      "outputs": [],
      "stateMutability": "nonpayable",
      "type": "function"
    },
    {
      "inputs": [
        {
          "internalType": "bytes32",
          "name": "role",
          "type": "bytes32"
        },
        {
          "internalType": "address",
          "name": "account",
          "type": "address"
        }
      ],
      "name": "hasRole",
      "outputs": [
        {
          "internalType": "bool",
          "name": "",
          "type": "bool"
        }
      ],
      "stateMutability": "view",
      "type": "function"
    },
    {
      "inputs": [],
      "name": "owner",
      "outputs": [
        {
          "internalType": "address",
          "name": "",
          "type": "address"
        }
      ],
      "stateMutability": "view",
      "type": "function"
    },
    {
      "inputs": [
        {
          "internalType": "uint256",
          "name": "amount",
          "type": "uint256"
        }
      ],
      "name": "payUsers",
      "outputs": [],
      "stateMutability": "nonpayable",
      "type": "function"
    },
    {
      "inputs": [],
      "name": "renounceOwnership",
      "outputs": [],
      "stateMutability": "nonpayable",
      "type": "function"
    },
    {
      "inputs": [
        {
          "internalType": "bytes32",
          "name": "role",
          "type": "bytes32"
        },
        {
          "internalType": "address",
          "name": "account",
          "type": "address"
        }
      ],
      "name": "renounceRole",
      "outputs": [],
      "stateMutability": "nonpayable",
      "type": "function"
    },
    {
      "inputs": [
        {
          "internalType": "bytes32",
          "name": "role",
          "type": "bytes32"
        },
        {
          "internalType": "address",
          "name": "account",
          "type": "address"
        }
      ],
      "name": "revokeRole",
      "outputs": [],
      "stateMutability": "nonpayable",
      "type": "function"
    },
    {
      "inputs": [
        {
          "internalType": "bytes4",
          "name": "interfaceId",
          "type": "bytes4"
        }
      ],
      "name": "supportsInterface",
      "outputs": [
        {
          "internalType": "bool",
          "name": "",
          "type": "bool"
        }
      ],
      "stateMutability": "view",
      "type": "function"
    },
    {
      "inputs": [
        {
          "internalType": "address",
          "name": "newOwner",
          "type": "address"
        }
      ],
      "name": "transferOwnership",
      "outputs": [],
      "stateMutability": "nonpayable",
      "type": "function"
    }
  ],
  "bytecode": "0x60806040523480156200001157600080fd5b5060405162001f4a38038062001f4a8339818101604052810190620000379190620002f2565b620000576200004b6200009c60201b60201c565b620000a460201b60201c565b81600381905550826004819055506200007a6000801b826200016860201b60201c565b6200008b81620000a460201b60201c565b6000600281905550505050620003ba565b600033905090565b60008060009054906101000a900473ffffffffffffffffffffffffffffffffffffffff169050816000806101000a81548173ffffffffffffffffffffffffffffffffffffffff021916908373ffffffffffffffffffffffffffffffffffffffff1602179055508173ffffffffffffffffffffffffffffffffffffffff168173ffffffffffffffffffffffffffffffffffffffff167f8be0079c531659141344cd1fd0a4f28419497f9722a3daafe3b4186f6b6457e060405160405180910390a35050565b6200017a82826200025960201b60201c565b6200025557600180600084815260200190815260200160002060000160008373ffffffffffffffffffffffffffffffffffffffff1673ffffffffffffffffffffffffffffffffffffffff16815260200190815260200160002060006101000a81548160ff021916908315150217905550620001fa6200009c60201b60201c565b73ffffffffffffffffffffffffffffffffffffffff168173ffffffffffffffffffffffffffffffffffffffff16837f2f8788117e7eff1d82e926ec794901d17c78024a50270940304540a733656f0d60405160405180910390a45b5050565b60006001600084815260200190815260200160002060000160008373ffffffffffffffffffffffffffffffffffffffff1673ffffffffffffffffffffffffffffffffffffffff16815260200190815260200160002060009054906101000a900460ff16905092915050565b600081519050620002d58162000386565b92915050565b600081519050620002ec81620003a0565b92915050565b6000806000606084860312156200030857600080fd5b60006200031886828701620002db565b93505060206200032b86828701620002db565b92505060406200033e86828701620002c4565b9150509250925092565b6000620003558262000366565b9050919050565b6000819050919050565b600073ffffffffffffffffffffffffffffffffffffffff82169050919050565b620003918162000348565b81146200039d57600080fd5b50565b620003ab816200035c565b8114620003b757600080fd5b50565b611b8080620003ca6000396000f3fe608060405234801561001057600080fd5b50600436106100f55760003560e01c8063715018a611610097578063d547741f11610066578063d547741f1461025c578063f0bd87cc14610278578063f2fde38b14610296578063fcc0ef0b146102b2576100f5565b8063715018a6146101e65780638da5cb5b146101f057806391d148541461020e578063a217fddf1461023e576100f5565b8063248a9ca3116100d3578063248a9ca3146101625780632f2ff15d1461019257806336568abe146101ae57806363ec512d146101ca576100f5565b806301ffc9a7146100fa578063084ea5cf1461012a5780631d5f1c2314610146575b600080fd5b610114600480360381019061010f919061143e565b6102ce565b604051610121919061164e565b60405180910390f35b610144600480360381019061013f91906113db565b610348565b005b610160600480360381019061015b9190611467565b6104f8565b005b61017c60048036038101906101779190611376565b610667565b6040516101899190611669565b60405180910390f35b6101ac60048036038101906101a7919061139f565b610687565b005b6101c860048036038101906101c3919061139f565b6106b0565b005b6101e460048036038101906101df9190611467565b610733565b005b6101ee6107c2565b005b6101f861084a565b6040516102059190611633565b60405180910390f35b6102286004803603810190610223919061139f565b610873565b604051610235919061164e565b60405180910390f35b6102466108de565b6040516102539190611669565b60405180910390f35b6102766004803603810190610271919061139f565b6108e5565b005b61028061090e565b60405161028d9190611669565b60405180910390f35b6102b060048036038101906102ab9190611311565b610932565b005b6102cc60048036038101906102c7919061133a565b610a2a565b005b60007f7965db0b000000000000000000000000000000000000000000000000000000007bffffffffffffffffffffffffffffffffffffffffffffffffffffffff1916827bffffffffffffffffffffffffffffffffffffffffffffffffffffffff19161480610341575061034082610bd6565b5b9050919050565b610350610c40565b73ffffffffffffffffffffffffffffffffffffffff1661036e61084a565b73ffffffffffffffffffffffffffffffffffffffff16146103c4576040517f08c379a00000000000000000000000000000000000000000000000000000000081526004016103bb906116e6565b60405180910390fd5b60405180608001604052808581526020018481526020018381526020018273ffffffffffffffffffffffffffffffffffffffff16815250600660008373ffffffffffffffffffffffffffffffffffffffff1673ffffffffffffffffffffffffffffffffffffffff16815260200190815260200160002060008201518160000155602082015181600101556040820151816002015560608201518160030160006101000a81548173ffffffffffffffffffffffffffffffffffffffff021916908373ffffffffffffffffffffffffffffffffffffffff16021790555090505081848273ffffffffffffffffffffffffffffffffffffffff167fa83a667407490563b9d441dc975e0da172006686863a2fc9404ef31ae88075ad866040516104ea9190611669565b60405180910390a450505050565b610500610c40565b73ffffffffffffffffffffffffffffffffffffffff1661051e61084a565b73ffffffffffffffffffffffffffffffffffffffff1614610574576040517f08c379a000000000000000000000000000000000000000000000000000000000815260040161056b906116e6565b60405180910390fd5b6000610584600254600554610c48565b905060008111801561059557508082105b61059e57600080fd5b60006105f383600660006105b061084a565b73ffffffffffffffffffffffffffffffffffffffff1673ffffffffffffffffffffffffffffffffffffffff16815260200190815260200160002060020154610c5e565b90506000610602826064610c74565b905061060c61084a565b73ffffffffffffffffffffffffffffffffffffffff16817f9e5548b2f8705a1e61763743357e3dbd5285f26b64b9a98da76fbfd669e641ef60405160405180910390a361065b60055485610c8a565b60058190555050505050565b600060016000838152602001908152602001600020600101549050919050565b61069082610667565b6106a18161069c610c40565b610ca0565b6106ab8383610d3d565b505050565b6106b8610c40565b73ffffffffffffffffffffffffffffffffffffffff168173ffffffffffffffffffffffffffffffffffffffff1614610725576040517f08c379a000000000000000000000000000000000000000000000000000000000815260040161071c90611706565b60405180910390fd5b61072f8282610e1d565b5050565b7ffbd454f36a7e1a388bd6fc3ab10d434aa4578f811acbbcf33afb1c697486313c61076581610760610c40565b610ca0565b61077160025483610c8a565b6002819055506003543373ffffffffffffffffffffffffffffffffffffffff16837f90fc3d0cbd249d9c60ec7d1e76dbd02c92c150f0f8c25a3ecb32d6f04f697ff160405160405180910390a45050565b6107ca610c40565b73ffffffffffffffffffffffffffffffffffffffff166107e861084a565b73ffffffffffffffffffffffffffffffffffffffff161461083e576040517f08c379a0000000000000000000000000000000000000000000000000000000008152600401610835906116e6565b60405180910390fd5b6108486000610eff565b565b60008060009054906101000a900473ffffffffffffffffffffffffffffffffffffffff16905090565b60006001600084815260200190815260200160002060000160008373ffffffffffffffffffffffffffffffffffffffff1673ffffffffffffffffffffffffffffffffffffffff16815260200190815260200160002060009054906101000a900460ff16905092915050565b6000801b81565b6108ee82610667565b6108ff816108fa610c40565b610ca0565b6109098383610e1d565b505050565b7ffbd454f36a7e1a388bd6fc3ab10d434aa4578f811acbbcf33afb1c697486313c81565b61093a610c40565b73ffffffffffffffffffffffffffffffffffffffff1661095861084a565b73ffffffffffffffffffffffffffffffffffffffff16146109ae576040517f08c379a00000000000000000000000000000000000000000000000000000000081526004016109a5906116e6565b60405180910390fd5b600073ffffffffffffffffffffffffffffffffffffffff168173ffffffffffffffffffffffffffffffffffffffff161415610a1e576040517f08c379a0000000000000000000000000000000000000000000000000000000008152600401610a15906116c6565b60405180910390fd5b610a2781610eff565b50565b610a32610c40565b73ffffffffffffffffffffffffffffffffffffffff16610a5061084a565b73ffffffffffffffffffffffffffffffffffffffff1614610aa6576040517f08c379a0000000000000000000000000000000000000000000000000000000008152600401610a9d906116e6565b60405180910390fd5b60405180604001604052808281526020018373ffffffffffffffffffffffffffffffffffffffff16815250600760008473ffffffffffffffffffffffffffffffffffffffff1673ffffffffffffffffffffffffffffffffffffffff1681526020019081526020016000206000820151816000015560208201518160010160006101000a81548173ffffffffffffffffffffffffffffffffffffffff021916908373ffffffffffffffffffffffffffffffffffffffff160217905550905050610b8e7ffbd454f36a7e1a388bd6fc3ab10d434aa4578f811acbbcf33afb1c697486313c83610d3d565b808273ffffffffffffffffffffffffffffffffffffffff167ff020a9ccea00b864dff241f7ae769f2c098f07749ce0e276e4756cc3d7b049ef60405160405180910390a35050565b60007f01ffc9a7000000000000000000000000000000000000000000000000000000007bffffffffffffffffffffffffffffffffffffffffffffffffffffffff1916827bffffffffffffffffffffffffffffffffffffffffffffffffffffffff1916149050919050565b600033905090565b60008183610c56919061182e565b905092915050565b60008183610c6c91906117d4565b905092915050565b60008183610c8291906117a3565b905092915050565b60008183610c98919061174d565b905092915050565b610caa8282610873565b610d3957610ccf8173ffffffffffffffffffffffffffffffffffffffff166014610fc3565b610cdd8360001c6020610fc3565b604051602001610cee9291906115f9565b6040516020818303038152906040526040517f08c379a0000000000000000000000000000000000000000000000000000000008152600401610d309190611684565b60405180910390fd5b5050565b610d478282610873565b610e1957600180600084815260200190815260200160002060000160008373ffffffffffffffffffffffffffffffffffffffff1673ffffffffffffffffffffffffffffffffffffffff16815260200190815260200160002060006101000a81548160ff021916908315150217905550610dbe610c40565b73ffffffffffffffffffffffffffffffffffffffff168173ffffffffffffffffffffffffffffffffffffffff16837f2f8788117e7eff1d82e926ec794901d17c78024a50270940304540a733656f0d60405160405180910390a45b5050565b610e278282610873565b15610efb5760006001600084815260200190815260200160002060000160008373ffffffffffffffffffffffffffffffffffffffff1673ffffffffffffffffffffffffffffffffffffffff16815260200190815260200160002060006101000a81548160ff021916908315150217905550610ea0610c40565b73ffffffffffffffffffffffffffffffffffffffff168173ffffffffffffffffffffffffffffffffffffffff16837ff6391f5c32d9c69d2a47ea670b442974b53935d1edc7fd64eb21e047a839171b60405160405180910390a45b5050565b60008060009054906101000a900473ffffffffffffffffffffffffffffffffffffffff169050816000806101000a81548173ffffffffffffffffffffffffffffffffffffffff021916908373ffffffffffffffffffffffffffffffffffffffff1602179055508173ffffffffffffffffffffffffffffffffffffffff168173ffffffffffffffffffffffffffffffffffffffff167f8be0079c531659141344cd1fd0a4f28419497f9722a3daafe3b4186f6b6457e060405160405180910390a35050565b606060006002836002610fd691906117d4565b610fe0919061174d565b67ffffffffffffffff81111561101f577f4e487b7100000000000000000000000000000000000000000000000000000000600052604160045260246000fd5b6040519080825280601f01601f1916602001820160405280156110515781602001600182028036833780820191505090505b5090507f3000000000000000000000000000000000000000000000000000000000000000816000815181106110af577f4e487b7100000000000000000000000000000000000000000000000000000000600052603260045260246000fd5b60200101907effffffffffffffffffffffffffffffffffffffffffffffffffffffffffffff1916908160001a9053507f780000000000000000000000000000000000000000000000000000000000000081600181518110611139577f4e487b7100000000000000000000000000000000000000000000000000000000600052603260045260246000fd5b60200101907effffffffffffffffffffffffffffffffffffffffffffffffffffffffffffff1916908160001a9053506000600184600261117991906117d4565b611183919061174d565b90505b600181111561126f577f3031323334353637383961626364656600000000000000000000000000000000600f8616601081106111eb577f4e487b7100000000000000000000000000000000000000000000000000000000600052603260045260246000fd5b1a60f81b828281518110611228577f4e487b7100000000000000000000000000000000000000000000000000000000600052603260045260246000fd5b60200101907effffffffffffffffffffffffffffffffffffffffffffffffffffffffffffff1916908160001a905350600485901c94508061126890611913565b9050611186565b50600084146112b3576040517f08c379a00000000000000000000000000000000000000000000000000000000081526004016112aa906116a6565b60405180910390fd5b8091505092915050565b6000813590506112cc81611aee565b92915050565b6000813590506112e181611b05565b92915050565b6000813590506112f681611b1c565b92915050565b60008135905061130b81611b33565b92915050565b60006020828403121561132357600080fd5b6000611331848285016112bd565b91505092915050565b6000806040838503121561134d57600080fd5b600061135b858286016112bd565b925050602061136c858286016112d2565b9150509250929050565b60006020828403121561138857600080fd5b6000611396848285016112d2565b91505092915050565b600080604083850312156113b257600080fd5b60006113c0858286016112d2565b92505060206113d1858286016112bd565b9150509250929050565b600080600080608085870312156113f157600080fd5b60006113ff878288016112d2565b9450506020611410878288016112d2565b9350506040611421878288016112fc565b9250506060611432878288016112bd565b91505092959194509250565b60006020828403121561145057600080fd5b600061145e848285016112e7565b91505092915050565b60006020828403121561147957600080fd5b6000611487848285016112fc565b91505092915050565b61149981611862565b82525050565b6114a881611874565b82525050565b6114b781611880565b82525050565b60006114c882611726565b6114d28185611731565b93506114e28185602086016118e0565b6114eb8161199b565b840191505092915050565b600061150182611726565b61150b8185611742565b935061151b8185602086016118e0565b80840191505092915050565b6000611534602083611731565b915061153f826119ac565b602082019050919050565b6000611557602683611731565b9150611562826119d5565b604082019050919050565b600061157a602083611731565b915061158582611a24565b602082019050919050565b600061159d601783611742565b91506115a882611a4d565b601782019050919050565b60006115c0601183611742565b91506115cb82611a76565b601182019050919050565b60006115e3602f83611731565b91506115ee82611a9f565b604082019050919050565b600061160482611590565b915061161082856114f6565b915061161b826115b3565b915061162782846114f6565b91508190509392505050565b60006020820190506116486000830184611490565b92915050565b6000602082019050611663600083018461149f565b92915050565b600060208201905061167e60008301846114ae565b92915050565b6000602082019050818103600083015261169e81846114bd565b905092915050565b600060208201905081810360008301526116bf81611527565b9050919050565b600060208201905081810360008301526116df8161154a565b9050919050565b600060208201905081810360008301526116ff8161156d565b9050919050565b6000602082019050818103600083015261171f816115d6565b9050919050565b600081519050919050565b600082825260208201905092915050565b600081905092915050565b6000611758826118d6565b9150611763836118d6565b9250827fffffffffffffffffffffffffffffffffffffffffffffffffffffffffffffffff038211156117985761179761193d565b5b828201905092915050565b60006117ae826118d6565b91506117b9836118d6565b9250826117c9576117c861196c565b5b828204905092915050565b60006117df826118d6565b91506117ea836118d6565b9250817fffffffffffffffffffffffffffffffffffffffffffffffffffffffffffffffff04831182151516156118235761182261193d565b5b828202905092915050565b6000611839826118d6565b9150611844836118d6565b9250828210156118575761185661193d565b5b828203905092915050565b600061186d826118b6565b9050919050565b60008115159050919050565b6000819050919050565b60007fffffffff0000000000000000000000000000000000000000000000000000000082169050919050565b600073ffffffffffffffffffffffffffffffffffffffff82169050919050565b6000819050919050565b60005b838110156118fe5780820151818401526020810190506118e3565b8381111561190d576000848401525b50505050565b600061191e826118d6565b915060008214156119325761193161193d565b5b600182039050919050565b7f4e487b7100000000000000000000000000000000000000000000000000000000600052601160045260246000fd5b7f4e487b7100000000000000000000000000000000000000000000000000000000600052601260045260246000fd5b6000601f19601f8301169050919050565b7f537472696e67733a20686578206c656e67746820696e73756666696369656e74600082015250565b7f4f776e61626c653a206e6577206f776e657220697320746865207a65726f206160008201527f6464726573730000000000000000000000000000000000000000000000000000602082015250565b7f4f776e61626c653a2063616c6c6572206973206e6f7420746865206f776e6572600082015250565b7f416363657373436f6e74726f6c3a206163636f756e7420000000000000000000600082015250565b7f206973206d697373696e6720726f6c6520000000000000000000000000000000600082015250565b7f416363657373436f6e74726f6c3a2063616e206f6e6c792072656e6f756e636560008201527f20726f6c657320666f722073656c660000000000000000000000000000000000602082015250565b611af781611862565b8114611b0257600080fd5b50565b611b0e81611880565b8114611b1957600080fd5b50565b611b258161188a565b8114611b3057600080fd5b50565b611b3c816118d6565b8114611b4757600080fd5b5056fea26469706673582212207f533bd56c9021eeffe4cd7f377f6479ff0e6efa72326d1b0ef84b0504c9099764736f6c63430008020033",
  "linkReferences": {},
  "deployedLinkReferences": {}
}