{
  "_format": "hh-sol-artifact-1",
  "contractName": "Project",
  "sourceName": "contracts/Project.sol",
  "abi": [
    {
      "inputs": [
        {
          "internalType": "string",
          "name": "name",
          "type": "string"
        },
        {
          "internalType": "string",
          "name": "id",
          "type": "string"
        },
        {
          "internalType": "address",
          "name": "_projectManager",
          "type": "address"
        }
      ],
      "stateMutability": "nonpayable",
      "type": "constructor"
    },
    {
      "anonymous": false,
      "inputs": [
        {
          "indexed": true,
          "internalType": "address",
          "name": "id",
          "type": "address"
        },
        {
          "indexed": true,
          "internalType": "string",
          "name": "name",
          "type": "string"
        }
      ],
      "name": "DISTRIBUTION_RIGHT_AWARDED",
      "type": "event"
    },
    {
      "anonymous": false,
      "inputs": [
        {
          "indexed": true,
          "internalType": "address",
          "name": "previousOwner",
          "type": "address"
        },
        {
          "indexed": true,
          "internalType": "address",
          "name": "newOwner",
          "type": "address"
        }
      ],
      "name": "OwnershipTransferred",
      "type": "event"
    },
    {
      "anonymous": false,
      "inputs": [
        {
          "indexed": true,
          "internalType": "uint256",
          "name": "amount",
          "type": "uint256"
        },
        {
          "indexed": true,
          "internalType": "address",
          "name": "distributor",
          "type": "address"
        },
        {
          "indexed": true,
          "internalType": "string",
          "name": "projectId",
          "type": "string"
        }
      ],
      "name": "REVENUE_GENERATED",
      "type": "event"
    },
    {
      "anonymous": false,
      "inputs": [
        {
          "indexed": true,
          "internalType": "bytes32",
          "name": "role",
          "type": "bytes32"
        },
        {
          "indexed": true,
          "internalType": "bytes32",
          "name": "previousAdminRole",
          "type": "bytes32"
        },
        {
          "indexed": true,
          "internalType": "bytes32",
          "name": "newAdminRole",
          "type": "bytes32"
        }
      ],
      "name": "RoleAdminChanged",
      "type": "event"
    },
    {
      "anonymous": false,
      "inputs": [
        {
          "indexed": true,
          "internalType": "bytes32",
          "name": "role",
          "type": "bytes32"
        },
        {
          "indexed": true,
          "internalType": "address",
          "name": "account",
          "type": "address"
        },
        {
          "indexed": true,
          "internalType": "address",
          "name": "sender",
          "type": "address"
        }
      ],
      "name": "RoleGranted",
      "type": "event"
    },
    {
      "anonymous": false,
      "inputs": [
        {
          "indexed": true,
          "internalType": "bytes32",
          "name": "role",
          "type": "bytes32"
        },
        {
          "indexed": true,
          "internalType": "address",
          "name": "account",
          "type": "address"
        },
        {
          "indexed": true,
          "internalType": "address",
          "name": "sender",
          "type": "address"
        }
      ],
      "name": "RoleRevoked",
      "type": "event"
    },
    {
      "anonymous": false,
      "inputs": [
        {
          "indexed": true,
          "internalType": "uint256",
          "name": "amount",
          "type": "uint256"
        },
        {
          "indexed": true,
          "internalType": "address",
          "name": "userId",
          "type": "address"
        }
      ],
      "name": "SHARE_PAID",
      "type": "event"
    },
    {
      "anonymous": false,
      "inputs": [
        {
          "indexed": true,
          "internalType": "address",
          "name": "id",
          "type": "address"
        },
        {
          "indexed": true,
          "internalType": "string",
          "name": "name",
          "type": "string"
        },
        {
          "indexed": false,
          "internalType": "string",
          "name": "organization",
          "type": "string"
        },
        {
          "indexed": true,
          "internalType": "uint256",
          "name": "quota",
          "type": "uint256"
        }
      ],
      "name": "USER_ADDED",
      "type": "event"
    },
    {
      "inputs": [],
      "name": "DEFAULT_ADMIN_ROLE",
      "outputs": [
        {
          "internalType": "bytes32",
          "name": "",
          "type": "bytes32"
        }
      ],
      "stateMutability": "view",
      "type": "function"
    },
    {
      "inputs": [],
      "name": "DISTRIBUTOR_ROLE",
      "outputs": [
        {
          "internalType": "bytes32",
          "name": "",
          "type": "bytes32"
        }
      ],
      "stateMutability": "view",
      "type": "function"
    },
    {
      "inputs": [
        {
          "internalType": "address",
          "name": "accountId",
          "type": "address"
        },
        {
          "internalType": "string",
          "name": "name",
          "type": "string"
        }
      ],
      "name": "addDistributor",
      "outputs": [],
      "stateMutability": "nonpayable",
      "type": "function"
    },
    {
      "inputs": [
        {
          "internalType": "uint256",
          "name": "amount",
          "type": "uint256"
        }
      ],
      "name": "addRevenue",
      "outputs": [],
      "stateMutability": "nonpayable",
      "type": "function"
    },
    {
      "inputs": [
        {
          "internalType": "string",
          "name": "_name",
          "type": "string"
        },
        {
          "internalType": "string",
          "name": "_org",
          "type": "string"
        },
        {
          "internalType": "uint256",
          "name": "_quota",
          "type": "uint256"
        },
        {
          "internalType": "address",
          "name": "_id",
          "type": "address"
        }
      ],
      "name": "addUser",
      "outputs": [],
      "stateMutability": "nonpayable",
      "type": "function"
    },
    {
      "inputs": [
        {
          "internalType": "bytes32",
          "name": "role",
          "type": "bytes32"
        }
      ],
      "name": "getRoleAdmin",
      "outputs": [
        {
          "internalType": "bytes32",
          "name": "",
          "type": "bytes32"
        }
      ],
      "stateMutability": "view",
      "type": "function"
    },
    {
      "inputs": [
        {
          "internalType": "bytes32",
          "name": "role",
          "type": "bytes32"
        },
        {
          "internalType": "address",
          "name": "account",
          "type": "address"
        }
      ],
      "name": "grantRole",
      "outputs": [],
      "stateMutability": "nonpayable",
      "type": "function"
    },
    {
      "inputs": [
        {
          "internalType": "bytes32",
          "name": "role",
          "type": "bytes32"
        },
        {
          "internalType": "address",
          "name": "account",
          "type": "address"
        }
      ],
      "name": "hasRole",
      "outputs": [
        {
          "internalType": "bool",
          "name": "",
          "type": "bool"
        }
      ],
      "stateMutability": "view",
      "type": "function"
    },
    {
      "inputs": [],
      "name": "owner",
      "outputs": [
        {
          "internalType": "address",
          "name": "",
          "type": "address"
        }
      ],
      "stateMutability": "view",
      "type": "function"
    },
    {
      "inputs": [
        {
          "internalType": "uint256",
          "name": "amount",
          "type": "uint256"
        }
      ],
      "name": "payUsers",
      "outputs": [],
      "stateMutability": "nonpayable",
      "type": "function"
    },
    {
      "inputs": [],
      "name": "renounceOwnership",
      "outputs": [],
      "stateMutability": "nonpayable",
      "type": "function"
    },
    {
      "inputs": [
        {
          "internalType": "bytes32",
          "name": "role",
          "type": "bytes32"
        },
        {
          "internalType": "address",
          "name": "account",
          "type": "address"
        }
      ],
      "name": "renounceRole",
      "outputs": [],
      "stateMutability": "nonpayable",
      "type": "function"
    },
    {
      "inputs": [
        {
          "internalType": "bytes32",
          "name": "role",
          "type": "bytes32"
        },
        {
          "internalType": "address",
          "name": "account",
          "type": "address"
        }
      ],
      "name": "revokeRole",
      "outputs": [],
      "stateMutability": "nonpayable",
      "type": "function"
    },
    {
      "inputs": [
        {
          "internalType": "bytes4",
          "name": "interfaceId",
          "type": "bytes4"
        }
      ],
      "name": "supportsInterface",
      "outputs": [
        {
          "internalType": "bool",
          "name": "",
          "type": "bool"
        }
      ],
      "stateMutability": "view",
      "type": "function"
    },
    {
      "inputs": [
        {
          "internalType": "address",
          "name": "newOwner",
          "type": "address"
        }
      ],
      "name": "transferOwnership",
      "outputs": [],
      "stateMutability": "nonpayable",
      "type": "function"
    }
  ],
  "bytecode": "0x60806040523480156200001157600080fd5b50604051620025a9380380620025a9833981810160405281019062000037919062000421565b620000576200004b620000c060201b60201c565b620000c860201b60201c565b81600390805190602001906200006f929190620002e8565b50826004908051906020019062000088929190620002e8565b506200009e6000801b826200018c60201b60201c565b620000af81620000c860201b60201c565b600060028190555050505062000667565b600033905090565b60008060009054906101000a900473ffffffffffffffffffffffffffffffffffffffff169050816000806101000a81548173ffffffffffffffffffffffffffffffffffffffff021916908373ffffffffffffffffffffffffffffffffffffffff1602179055508173ffffffffffffffffffffffffffffffffffffffff168173ffffffffffffffffffffffffffffffffffffffff167f8be0079c531659141344cd1fd0a4f28419497f9722a3daafe3b4186f6b6457e060405160405180910390a35050565b6200019e82826200027d60201b60201c565b6200027957600180600084815260200190815260200160002060000160008373ffffffffffffffffffffffffffffffffffffffff1673ffffffffffffffffffffffffffffffffffffffff16815260200190815260200160002060006101000a81548160ff0219169083151502179055506200021e620000c060201b60201c565b73ffffffffffffffffffffffffffffffffffffffff168173ffffffffffffffffffffffffffffffffffffffff16837f2f8788117e7eff1d82e926ec794901d17c78024a50270940304540a733656f0d60405160405180910390a45b5050565b60006001600084815260200190815260200160002060000160008373ffffffffffffffffffffffffffffffffffffffff1673ffffffffffffffffffffffffffffffffffffffff16815260200190815260200160002060009054906101000a900460ff16905092915050565b828054620002f69062000572565b90600052602060002090601f0160209004810192826200031a576000855562000366565b82601f106200033557805160ff191683800117855562000366565b8280016001018555821562000366579182015b828111156200036557825182559160200191906001019062000348565b5b50905062000375919062000379565b5090565b5b80821115620003945760008160009055506001016200037a565b5090565b6000620003af620003a984620004d2565b620004a9565b905082815260208101848484011115620003c857600080fd5b620003d58482856200053c565b509392505050565b600081519050620003ee816200064d565b92915050565b600082601f8301126200040657600080fd5b81516200041884826020860162000398565b91505092915050565b6000806000606084860312156200043757600080fd5b600084015167ffffffffffffffff8111156200045257600080fd5b6200046086828701620003f4565b935050602084015167ffffffffffffffff8111156200047e57600080fd5b6200048c86828701620003f4565b92505060406200049f86828701620003dd565b9150509250925092565b6000620004b5620004c8565b9050620004c38282620005a8565b919050565b6000604051905090565b600067ffffffffffffffff821115620004f057620004ef6200060d565b5b620004fb826200063c565b9050602081019050919050565b600062000515826200051c565b9050919050565b600073ffffffffffffffffffffffffffffffffffffffff82169050919050565b60005b838110156200055c5780820151818401526020810190506200053f565b838111156200056c576000848401525b50505050565b600060028204905060018216806200058b57607f821691505b60208210811415620005a257620005a1620005de565b5b50919050565b620005b3826200063c565b810181811067ffffffffffffffff82111715620005d557620005d46200060d565b5b80604052505050565b7f4e487b7100000000000000000000000000000000000000000000000000000000600052602260045260246000fd5b7f4e487b7100000000000000000000000000000000000000000000000000000000600052604160045260246000fd5b6000601f19601f8301169050919050565b620006588162000508565b81146200066457600080fd5b50565b611f3280620006776000396000f3fe608060405234801561001057600080fd5b50600436106100f55760003560e01c8063715018a611610097578063a217fddf11610066578063a217fddf1461025a578063d547741f14610278578063f0bd87cc14610294578063f2fde38b146102b2576100f5565b8063715018a6146101e65780638da5cb5b146101f057806391d148541461020e578063a15ddba51461023e576100f5565b8063248a9ca3116100d3578063248a9ca3146101625780632f2ff15d1461019257806336568abe146101ae57806363ec512d146101ca576100f5565b806301ffc9a7146100fa5780631214d2fd1461012a5780631d5f1c2314610146575b600080fd5b610114600480360381019061010f9190611575565b6102ce565b60405161012191906118c5565b60405180910390f35b610144600480360381019061013f91906114bc565b610348565b005b610160600480360381019061015b9190611631565b61051c565b005b61017c60048036038101906101779190611510565b61068b565b60405161018991906118e0565b60405180910390f35b6101ac60048036038101906101a79190611539565b6106ab565b005b6101c860048036038101906101c39190611539565b6106d4565b005b6101e460048036038101906101df9190611631565b610757565b005b6101ee6107fa565b005b6101f8610882565b60405161020591906118aa565b60405180910390f35b61022860048036038101906102239190611539565b6108ab565b60405161023591906118c5565b60405180910390f35b6102586004803603810190610253919061159e565b610916565b005b610262610b01565b60405161026f91906118e0565b60405180910390f35b610292600480360381019061028d9190611539565b610b08565b005b61029c610b31565b6040516102a991906118e0565b60405180910390f35b6102cc60048036038101906102c79190611493565b610b55565b005b60007f7965db0b000000000000000000000000000000000000000000000000000000007bffffffffffffffffffffffffffffffffffffffffffffffffffffffff1916827bffffffffffffffffffffffffffffffffffffffffffffffffffffffff19161480610341575061034082610c4d565b5b9050919050565b610350610cb7565b73ffffffffffffffffffffffffffffffffffffffff1661036e610882565b73ffffffffffffffffffffffffffffffffffffffff16146103c4576040517f08c379a00000000000000000000000000000000000000000000000000000000081526004016103bb9061195d565b60405180910390fd5b60405180604001604052808281526020018373ffffffffffffffffffffffffffffffffffffffff16815250600760008473ffffffffffffffffffffffffffffffffffffffff1673ffffffffffffffffffffffffffffffffffffffff168152602001908152602001600020600082015181600001908051906020019061044a929190611334565b5060208201518160010160006101000a81548173ffffffffffffffffffffffffffffffffffffffff021916908373ffffffffffffffffffffffffffffffffffffffff1602179055509050506104bf7ffbd454f36a7e1a388bd6fc3ab10d434aa4578f811acbbcf33afb1c697486313c83610cbf565b806040516104cd9190611842565b60405180910390208273ffffffffffffffffffffffffffffffffffffffff167f755c39a8421447dff0dc5039f1cbd7b1cca303acb67fac79a8260f927d787fdc60405160405180910390a35050565b610524610cb7565b73ffffffffffffffffffffffffffffffffffffffff16610542610882565b73ffffffffffffffffffffffffffffffffffffffff1614610598576040517f08c379a000000000000000000000000000000000000000000000000000000000815260040161058f9061195d565b60405180910390fd5b60006105a8600254600554610d9f565b90506000811180156105b957508082105b6105c257600080fd5b600061061783600660006105d4610882565b73ffffffffffffffffffffffffffffffffffffffff1673ffffffffffffffffffffffffffffffffffffffff16815260200190815260200160002060020154610db5565b90506000610626826064610dcb565b9050610630610882565b73ffffffffffffffffffffffffffffffffffffffff16817f9e5548b2f8705a1e61763743357e3dbd5285f26b64b9a98da76fbfd669e641ef60405160405180910390a361067f60055485610de1565b60058190555050505050565b600060016000838152602001908152602001600020600101549050919050565b6106b48261068b565b6106c5816106c0610cb7565b610df7565b6106cf8383610cbf565b505050565b6106dc610cb7565b73ffffffffffffffffffffffffffffffffffffffff168173ffffffffffffffffffffffffffffffffffffffff1614610749576040517f08c379a00000000000000000000000000000000000000000000000000000000081526004016107409061197d565b60405180910390fd5b6107538282610e94565b5050565b7ffbd454f36a7e1a388bd6fc3ab10d434aa4578f811acbbcf33afb1c697486313c61078981610784610cb7565b610df7565b61079560025483610de1565b60028190555060036040516107aa9190611859565b60405180910390203373ffffffffffffffffffffffffffffffffffffffff16837f455c09316fd4d6a80deba697dbe17579251fddf2f2ea0fce05231961745db6f860405160405180910390a45050565b610802610cb7565b73ffffffffffffffffffffffffffffffffffffffff16610820610882565b73ffffffffffffffffffffffffffffffffffffffff1614610876576040517f08c379a000000000000000000000000000000000000000000000000000000000815260040161086d9061195d565b60405180910390fd5b6108806000610f76565b565b60008060009054906101000a900473ffffffffffffffffffffffffffffffffffffffff16905090565b60006001600084815260200190815260200160002060000160008373ffffffffffffffffffffffffffffffffffffffff1673ffffffffffffffffffffffffffffffffffffffff16815260200190815260200160002060009054906101000a900460ff16905092915050565b61091e610cb7565b73ffffffffffffffffffffffffffffffffffffffff1661093c610882565b73ffffffffffffffffffffffffffffffffffffffff1614610992576040517f08c379a00000000000000000000000000000000000000000000000000000000081526004016109899061195d565b60405180910390fd5b60405180608001604052808581526020018481526020018381526020018273ffffffffffffffffffffffffffffffffffffffff16815250600660008373ffffffffffffffffffffffffffffffffffffffff1673ffffffffffffffffffffffffffffffffffffffff1681526020019081526020016000206000820151816000019080519060200190610a24929190611334565b506020820151816001019080519060200190610a41929190611334565b506040820151816002015560608201518160030160006101000a81548173ffffffffffffffffffffffffffffffffffffffff021916908373ffffffffffffffffffffffffffffffffffffffff1602179055509050508184604051610aa59190611842565b60405180910390208273ffffffffffffffffffffffffffffffffffffffff167f59496f7b2d2a6e57c809c6c287bca2bac5be9da9b12c186229a1f30acde7e23986604051610af391906118fb565b60405180910390a450505050565b6000801b81565b610b118261068b565b610b2281610b1d610cb7565b610df7565b610b2c8383610e94565b505050565b7ffbd454f36a7e1a388bd6fc3ab10d434aa4578f811acbbcf33afb1c697486313c81565b610b5d610cb7565b73ffffffffffffffffffffffffffffffffffffffff16610b7b610882565b73ffffffffffffffffffffffffffffffffffffffff1614610bd1576040517f08c379a0000000000000000000000000000000000000000000000000000000008152600401610bc89061195d565b60405180910390fd5b600073ffffffffffffffffffffffffffffffffffffffff168173ffffffffffffffffffffffffffffffffffffffff161415610c41576040517f08c379a0000000000000000000000000000000000000000000000000000000008152600401610c389061193d565b60405180910390fd5b610c4a81610f76565b50565b60007f01ffc9a7000000000000000000000000000000000000000000000000000000007bffffffffffffffffffffffffffffffffffffffffffffffffffffffff1916827bffffffffffffffffffffffffffffffffffffffffffffffffffffffff1916149050919050565b600033905090565b610cc982826108ab565b610d9b57600180600084815260200190815260200160002060000160008373ffffffffffffffffffffffffffffffffffffffff1673ffffffffffffffffffffffffffffffffffffffff16815260200190815260200160002060006101000a81548160ff021916908315150217905550610d40610cb7565b73ffffffffffffffffffffffffffffffffffffffff168173ffffffffffffffffffffffffffffffffffffffff16837f2f8788117e7eff1d82e926ec794901d17c78024a50270940304540a733656f0d60405160405180910390a45b5050565b60008183610dad9190611b10565b905092915050565b60008183610dc39190611ab6565b905092915050565b60008183610dd99190611a85565b905092915050565b60008183610def9190611a2f565b905092915050565b610e0182826108ab565b610e9057610e268173ffffffffffffffffffffffffffffffffffffffff16601461103a565b610e348360001c602061103a565b604051602001610e45929190611870565b6040516020818303038152906040526040517f08c379a0000000000000000000000000000000000000000000000000000000008152600401610e8791906118fb565b60405180910390fd5b5050565b610e9e82826108ab565b15610f725760006001600084815260200190815260200160002060000160008373ffffffffffffffffffffffffffffffffffffffff1673ffffffffffffffffffffffffffffffffffffffff16815260200190815260200160002060006101000a81548160ff021916908315150217905550610f17610cb7565b73ffffffffffffffffffffffffffffffffffffffff168173ffffffffffffffffffffffffffffffffffffffff16837ff6391f5c32d9c69d2a47ea670b442974b53935d1edc7fd64eb21e047a839171b60405160405180910390a45b5050565b60008060009054906101000a900473ffffffffffffffffffffffffffffffffffffffff169050816000806101000a81548173ffffffffffffffffffffffffffffffffffffffff021916908373ffffffffffffffffffffffffffffffffffffffff1602179055508173ffffffffffffffffffffffffffffffffffffffff168173ffffffffffffffffffffffffffffffffffffffff167f8be0079c531659141344cd1fd0a4f28419497f9722a3daafe3b4186f6b6457e060405160405180910390a35050565b60606000600283600261104d9190611ab6565b6110579190611a2f565b67ffffffffffffffff811115611096577f4e487b7100000000000000000000000000000000000000000000000000000000600052604160045260246000fd5b6040519080825280601f01601f1916602001820160405280156110c85781602001600182028036833780820191505090505b5090507f300000000000000000000000000000000000000000000000000000000000000081600081518110611126577f4e487b7100000000000000000000000000000000000000000000000000000000600052603260045260246000fd5b60200101907effffffffffffffffffffffffffffffffffffffffffffffffffffffffffffff1916908160001a9053507f7800000000000000000000000000000000000000000000000000000000000000816001815181106111b0577f4e487b7100000000000000000000000000000000000000000000000000000000600052603260045260246000fd5b60200101907effffffffffffffffffffffffffffffffffffffffffffffffffffffffffffff1916908160001a905350600060018460026111f09190611ab6565b6111fa9190611a2f565b90505b60018111156112e6577f3031323334353637383961626364656600000000000000000000000000000000600f861660108110611262577f4e487b7100000000000000000000000000000000000000000000000000000000600052603260045260246000fd5b1a60f81b82828151811061129f577f4e487b7100000000000000000000000000000000000000000000000000000000600052603260045260246000fd5b60200101907effffffffffffffffffffffffffffffffffffffffffffffffffffffffffffff1916908160001a905350600485901c9450806112df90611c04565b90506111fd565b506000841461132a576040517f08c379a00000000000000000000000000000000000000000000000000000000081526004016113219061191d565b60405180910390fd5b8091505092915050565b82805461134090611c2e565b90600052602060002090601f01602090048101928261136257600085556113a9565b82601f1061137b57805160ff19168380011785556113a9565b828001600101855582156113a9579182015b828111156113a857825182559160200191906001019061138d565b5b5090506113b691906113ba565b5090565b5b808211156113d35760008160009055506001016113bb565b5090565b60006113ea6113e5846119c2565b61199d565b90508281526020810184848401111561140257600080fd5b61140d848285611bc2565b509392505050565b60008135905061142481611ea0565b92915050565b60008135905061143981611eb7565b92915050565b60008135905061144e81611ece565b92915050565b600082601f83011261146557600080fd5b81356114758482602086016113d7565b91505092915050565b60008135905061148d81611ee5565b92915050565b6000602082840312156114a557600080fd5b60006114b384828501611415565b91505092915050565b600080604083850312156114cf57600080fd5b60006114dd85828601611415565b925050602083013567ffffffffffffffff8111156114fa57600080fd5b61150685828601611454565b9150509250929050565b60006020828403121561152257600080fd5b60006115308482850161142a565b91505092915050565b6000806040838503121561154c57600080fd5b600061155a8582860161142a565b925050602061156b85828601611415565b9150509250929050565b60006020828403121561158757600080fd5b60006115958482850161143f565b91505092915050565b600080600080608085870312156115b457600080fd5b600085013567ffffffffffffffff8111156115ce57600080fd5b6115da87828801611454565b945050602085013567ffffffffffffffff8111156115f757600080fd5b61160387828801611454565b93505060406116148782880161147e565b925050606061162587828801611415565b91505092959194509250565b60006020828403121561164357600080fd5b60006116518482850161147e565b91505092915050565b61166381611b44565b82525050565b61167281611b56565b82525050565b61168181611b62565b82525050565b600061169282611a08565b61169c8185611a13565b93506116ac818560208601611bd1565b6116b581611d4d565b840191505092915050565b60006116cb82611a08565b6116d58185611a24565b93506116e5818560208601611bd1565b80840191505092915050565b600081546116fe81611c2e565b6117088186611a24565b94506001821660008114611723576001811461173457611767565b60ff19831686528186019350611767565b61173d856119f3565b60005b8381101561175f57815481890152600182019150602081019050611740565b838801955050505b50505092915050565b600061177d602083611a13565b915061178882611d5e565b602082019050919050565b60006117a0602683611a13565b91506117ab82611d87565b604082019050919050565b60006117c3602083611a13565b91506117ce82611dd6565b602082019050919050565b60006117e6601783611a24565b91506117f182611dff565b601782019050919050565b6000611809601183611a24565b915061181482611e28565b601182019050919050565b600061182c602f83611a13565b915061183782611e51565b604082019050919050565b600061184e82846116c0565b915081905092915050565b600061186582846116f1565b915081905092915050565b600061187b826117d9565b915061188782856116c0565b9150611892826117fc565b915061189e82846116c0565b91508190509392505050565b60006020820190506118bf600083018461165a565b92915050565b60006020820190506118da6000830184611669565b92915050565b60006020820190506118f56000830184611678565b92915050565b600060208201905081810360008301526119158184611687565b905092915050565b6000602082019050818103600083015261193681611770565b9050919050565b6000602082019050818103600083015261195681611793565b9050919050565b60006020820190508181036000830152611976816117b6565b9050919050565b600060208201905081810360008301526119968161181f565b9050919050565b60006119a76119b8565b90506119b38282611c60565b919050565b6000604051905090565b600067ffffffffffffffff8211156119dd576119dc611d1e565b5b6119e682611d4d565b9050602081019050919050565b60008190508160005260206000209050919050565b600081519050919050565b600082825260208201905092915050565b600081905092915050565b6000611a3a82611bb8565b9150611a4583611bb8565b9250827fffffffffffffffffffffffffffffffffffffffffffffffffffffffffffffffff03821115611a7a57611a79611c91565b5b828201905092915050565b6000611a9082611bb8565b9150611a9b83611bb8565b925082611aab57611aaa611cc0565b5b828204905092915050565b6000611ac182611bb8565b9150611acc83611bb8565b9250817fffffffffffffffffffffffffffffffffffffffffffffffffffffffffffffffff0483118215151615611b0557611b04611c91565b5b828202905092915050565b6000611b1b82611bb8565b9150611b2683611bb8565b925082821015611b3957611b38611c91565b5b828203905092915050565b6000611b4f82611b98565b9050919050565b60008115159050919050565b6000819050919050565b60007fffffffff0000000000000000000000000000000000000000000000000000000082169050919050565b600073ffffffffffffffffffffffffffffffffffffffff82169050919050565b6000819050919050565b82818337600083830152505050565b60005b83811015611bef578082015181840152602081019050611bd4565b83811115611bfe576000848401525b50505050565b6000611c0f82611bb8565b91506000821415611c2357611c22611c91565b5b600182039050919050565b60006002820490506001821680611c4657607f821691505b60208210811415611c5a57611c59611cef565b5b50919050565b611c6982611d4d565b810181811067ffffffffffffffff82111715611c8857611c87611d1e565b5b80604052505050565b7f4e487b7100000000000000000000000000000000000000000000000000000000600052601160045260246000fd5b7f4e487b7100000000000000000000000000000000000000000000000000000000600052601260045260246000fd5b7f4e487b7100000000000000000000000000000000000000000000000000000000600052602260045260246000fd5b7f4e487b7100000000000000000000000000000000000000000000000000000000600052604160045260246000fd5b6000601f19601f8301169050919050565b7f537472696e67733a20686578206c656e67746820696e73756666696369656e74600082015250565b7f4f776e61626c653a206e6577206f776e657220697320746865207a65726f206160008201527f6464726573730000000000000000000000000000000000000000000000000000602082015250565b7f4f776e61626c653a2063616c6c6572206973206e6f7420746865206f776e6572600082015250565b7f416363657373436f6e74726f6c3a206163636f756e7420000000000000000000600082015250565b7f206973206d697373696e6720726f6c6520000000000000000000000000000000600082015250565b7f416363657373436f6e74726f6c3a2063616e206f6e6c792072656e6f756e636560008201527f20726f6c657320666f722073656c660000000000000000000000000000000000602082015250565b611ea981611b44565b8114611eb457600080fd5b50565b611ec081611b62565b8114611ecb57600080fd5b50565b611ed781611b6c565b8114611ee257600080fd5b50565b611eee81611bb8565b8114611ef957600080fd5b5056fea2646970667358221220cd401d12844dbef84c52322d146a7b4c0c8c59010c3c3de94cb5721f747992d464736f6c63430008020033",
  "linkReferences": {},
  "deployedLinkReferences": {}
}